:100000000C9462000C948A000C948A000C948A0070
:100010000C948A000C948A000C948A000C948A0038
:100020000C948A000C948A000C948A000C948A0028
:100030000C948A000C948A000C948A000C948A0018
:100040000C9488030C948A000C9456030C9430038F
:100050000C948A000C948A000C948A000C948A00F8
:100060000C948A000C948A000000000024002700F1
:100070002A000000000023002600290000000000E4
:10008000250028002B0004040404040404040202D4
:100090000202020203030303030301020408102007
:1000A0004080010204081020010204081020000012
:1000B0000008000201000003040700000000000027
:1000C0000000170411241FBECFEFD8E0DEBFCDBF64
:1000D00011E0A0E0B1E0EEECF3E102C005900D927A
:1000E000A832B107D9F721E0A8E2B1E001C01D9222
:1000F000A33EB207E1F710E0C2E6D0E004C02197CA
:10010000FE010E94DF09C136D107C9F70E94E4044D
:100110000C94E5090C940000AF92BF92CF92DF924D
:10012000EF92FF920F931F93CF93DF936C017B01AC
:100130008B01040F151FEB015E01AE18BF08C0173D
:10014000D10759F06991D601ED91FC910190F081B0
:10015000E02DC6010995892B79F7C501DF91CF9173
:100160001F910F91FF90EF90DF90CF90BF90AF90D5
:100170000895FC01538D448D252F30E0842F90E0AD
:10018000821B930B541710F0CF9608950197089592
:10019000FC01918D828D981761F0A28DAE0FBF2F5B
:1001A000B11D5D968C91928D9F5F9F73928F90E0B1
:1001B00008958FEF9FEF0895FC01918D828D981720
:1001C00031F0828DE80FF11D858D90E008958FEF5D
:1001D0009FEF0895FC01918D228D892F90E0805C26
:1001E0009F4F821B91098F739927089581E391E0B6
:1001F0000E94EA0021E0892B09F420E0822F089573
:1002000080E090E0892B29F00E94F60081110C9487
:1002100000000895FC01A48DA80FB92FB11DA35AA9
:10022000BF4F2C91848D90E001968F739927848F16
:10023000A689B7892C93A089B1898C918370806439
:100240008C93938D848D981306C00288F389E02DDA
:1002500080818F7D80830895EF92FF920F931F938B
:10026000CF93DF93EC0181E0888F9B8D8C8D981369
:100270001AC0E889F989808185FF15C09FB7F89475
:10028000EE89FF896083E889F989808183708064C1
:1002900080839FBF81E090E0DF91CF911F910F910C
:1002A000FF90EF900895F62E0B8D10E00F5F1F4F1B
:1002B0000F731127E02E8C8D8E110CC00FB607FC2A
:1002C000FACFE889F989808185FFF5CFCE010E94B8
:1002D0000A01F1CFEB8DEC0FFD2FF11DE35AFF4F1B
:1002E000F0829FB7F8940B8FEA89FB898081806246
:1002F000CFCF682F81E391E00C942C01CF93DF9353
:10030000EC01888D8823B9F0AA89BB89E889F9892D
:100310008C9185FD03C0808186FD0DC00FB607FC62
:10032000F7CF8C9185FFF2CF808185FFEDCFCE0195
:100330000E940A01E9CFDF91CF910895CF93DF9317
:1003400090E0FC01E656FF4F24918A579F4FFC0135
:1003500084918823D1F090E0880F991FFC01E8591F
:10036000FF4FA591B491FC01E458FF4FC591D49182
:1003700061110EC09FB7F8948C91E22FE0958E2307
:100380008C932881E223E8839FBFDF91CF9108956A
:100390008FB7F894EC91E22BEC938FBFF6CF8E5091
:1003A000806480937C0080917A00806480937A00DE
:1003B00080917A0086FDFCCF809178009091790041
:1003C0000895FC0101900020E9F73197AF01481B27
:1003D000590BBC0181E391E00C948C008F929F92A9
:1003E000AF92BF920F931F93CF93DF93CDB7DEB73A
:1003F000A1970FB6F894DEBF0FBECDBF19A2423051
:1004000008F44AE08E010F5D1F4F842E912CB12C11
:10041000A12CA50194010E94BD09E62FB901CA01D2
:10042000EA30F4F4E05DD801EE938D01232B242B08
:10043000252B79F790E080E0109719F0CD010E940C
:10044000E101A1960FB6F894DEBF0FBECDBFDF91DC
:10045000CF911F910F91BF90AF909F908F90089573
:10046000E95CE1CF0F931F9390E0FC01E656FF4F4C
:100470006491FC01EA57FF4FE491F0E0EE0FFF1F9B
:10048000EE58FF4F8591949100E412E42FE030E0A4
:10049000462F0E94D203611571058105910529F04F
:1004A0006F5F7F4F8F4F9F4F9F701F910F910895E8
:1004B0004F925F926F927F928F929F92AF92BF9274
:1004C000CF92DF92EF92FF920F931F93CF936B0126
:1004D0007C01742EAC019B010E94B809882399F01D
:1004E00082E191E0CF911F910F91FF90EF90DF900B
:1004F000CF90BF90AF909F908F907F906F905F90C4
:100500004F900C94E10146015701E894B7F82FEFA2
:100510003FEF4FE75FE7C501B4010E94B8098111C1
:100520000DC02FEF3FEF4FE75FE7C501B4010E9419
:10053000EE0718161CF486E191E0D4CF2FEF3FEFC1
:100540004FE75FE4C701B6010E94460918161CF484
:100550008AE191E0C7CF2FEF3FEF4FE75FECC70194
:10056000B6010E94EE0787FDF3CF20E030E0A9013D
:10057000C701B6010E94EE0710E000E087FF08C047
:100580008DE20E9479018C01F7FAF094F7F8F0946B
:10059000C0E060E070E080E09FE37C1641F020E086
:1005A00030E040E251E40E94F307CF5FF6CFA701AD
:1005B00096010E9482072B013C010E9465084B01B5
:1005C0005C014AE00E94EE017C01E00EF11ECC23AA
:1005D000B1F1C501B4010E9494089B01AC01C301B3
:1005E000B2010E9481074B015C018EE20E947901F9
:1005F000E80EF91EC15018F120E030E040E251E46D
:10060000C501B4010E944B092B013C010E94650801
:100610004B01B12CA12C4AE0C501B4010E94EE01AE
:10062000E80EF91EC501B4010E9494089B01AC01BB
:10063000C301B2010E9481074B015C01DBCFC701FE
:10064000CF911F910F91FF90EF90DF90CF90BF90CF
:10065000AF909F908F907F906F905F904F90089594
:100660001F920F920FB60F9211242F933F934F9327
:100670005F936F937F938F939F93AF93BF93EF930A
:10068000FF9381E391E00E940A01FF91EF91BF91F6
:10069000AF919F918F917F916F915F914F913F911A
:1006A0002F910F900FBE0F901F9018951F920F92D1
:1006B0000FB60F9211242F938F939F93EF93FF9375
:1006C000E0914101F09142018081E0914701F09178
:1006D000480182FD1BC0908180914A018F5F8F731A
:1006E00020914B01821741F0E0914A01F0E0EF5C6C
:1006F000FE4F958F80934A01FF91EF919F918F91CB
:100700002F910F900FBE0F901F9018958081F4CFFE
:100710001F920F920FB60F9211242F933F938F9336
:100720009F93AF93BF9380912D0190912E01A09143
:100730002F01B091300130912C0123E0230F2D3790
:1007400058F50196A11DB11D20932C0180932D0118
:1007500090932E01A0932F01B09330018091280136
:1007600090912901A0912A01B0912B010196A11D20
:10077000B11D8093280190932901A0932A01B09381
:100780002B01BF91AF919F918F913F912F910F902E
:100790000FBE0F901F90189526E8230F0296A11DFB
:1007A000B11DD2CFCF92DF92EF92FF920F931F93A2
:1007B000E82FF92F05C0015011092109310961F114
:1007C000908196239417B9F305C0015011092109AE
:1007D000310911F1908196239413F7CFC12CD12CBC
:1007E000E12CF12C0AC08FEFC81AD80AE80AF80ADF
:1007F0000C151D052E053F0579F080818623841791
:1008000091F36C2D7D2D8E2D9F2D1F910F91FF90BB
:10081000EF90DF90CF90089560E070E080E090E08E
:100820001F910F91FF90EF90DF90CF90089510925D
:1008300034011092330188EE93E0A0E0B0E08093A1
:10084000350190933601A0933701B093380184E0CD
:1008500091E0909332018093310185EC90E0909388
:100860003E0180933D0184EC90E0909340018093A1
:100870003F0180EC90E0909342018093410181EC34
:1008800090E0909344018093430182EC90E0909338
:1008900046018093450186EC90E090934801809357
:1008A000470110924A0110924B0110924C01109294
:1008B0004D0180E090E0ABEEB2E48093D2019093E2
:1008C000D301A093D401B093D50161E085E00E94EB
:1008D0009E01E3EBF0E08491EFE9F0E09491EBE826
:1008E000F0E0E491EE23D1F0882359F0833009F44D
:1008F00054C008F047C0813009F455C0823009F473
:1009000056C0F0E0EE0FFF1FE458FF4FA591B491E1
:100910008FB7F894EC919E2B9C938FBF85E08093CA
:10092000E2012091D2013091D3014091D401509144
:10093000D50180E090E4ACE6B4E48093DA019093D2
:10094000DB01A093DC01B093DD012093D60130934D
:10095000D7014093D8015093D901BC01CD010E9429
:1009600081076093DE017093DF018093E001909333
:10097000E1016093CE017093CF018093D0019093F9
:10098000D10108958730B1F08830D1F0843009F07A
:10099000B8CF809180008F7D03C0809180008F77D9
:1009A00080938000AECF84B58F7784BDAACF84B505
:1009B0008F7DFBCF8091B0008F778093B000A1CF67
:1009C0008091B0008F7DF9CFCF93DF93CDB7DEB7A5
:1009D00028970FB6F894DEBF0FBECDBF789484B5CC
:1009E000826084BD84B5816084BD85B5826085BD2B
:1009F00085B5816085BD80916E00816080936E00B9
:100A000010928100809181008260809381008091AA
:100A1000810081608093810080918000816080935B
:100A200080008091B10084608093B1008091B0001B
:100A300081608093B00080917A00846080937A0016
:100A400080917A00826080937A0080917A00816040
:100A500080937A0080917A00806880937A00109267
:100A6000C10080E090E0A0E8BFE38093CE019093C6
:100A7000CF01A093D001B093D10160E082E00E9449
:100A80009E0160E083E00E949E0160E084E00E949D
:100A90009E0160E082E10E949E0160E083E10E948D
:100AA0009E01E0914101F091420182E08083E0915A
:100AB0003D01F0913E011082E0913F01F091400133
:100AC00080E1808310924901E0914501F091460157
:100AD00086E08083E0914301F09144018081806150
:100AE0008083E0914301F09144018081886080839C
:100AF000E0914301F0914401808180688083E0911E
:100B00004301F091440180818F7D80838EE191E0EB
:100B10000E94E10184E291E00E94E10182E00E94F2
:100B200032020E9494086B017C0120E030E041EE2B
:100B300054E40E94EE0787FF72C120E030E84DE6E2
:100B400054E4C701B6010E94460918160CF06EC1A4
:100B500020E030EA45EA54E4C701B6010E944609A4
:100B600087FD0BC020E030E242EB54E4C701B60140
:100B70000E94EE0718160CF061C120E030E84DE647
:100B800054E4C701B6010E94810720E030E844E543
:100B900054E40E94F3072B013C0183E00E943202DF
:100BA0000E9494086B017C0120E030E041EE54E4A7
:100BB0000E94EE0787FF4AC120E030E84DE654E48A
:100BC000C701B6010E94460918160CF046C120E084
:100BD00030EA45EA54E4C701B6010E94460987FDA0
:100BE0000BC020E030E242EB54E4C701B6010E94A2
:100BF000EE0718160CF039C120E030E84DE654E459
:100C0000C701B6010E94810720E030E844E554E4C2
:100C10000E94F3074B015C0184E00E9432020E94B3
:100C200094086B017C0120E030E447EE54E40E941C
:100C3000EE0787FF22C120E030E84DE654E4C7010B
:100C4000B6010E94460918160CF01FC120E030ECD6
:100C500048EA54E4C701B6010E94460987FD0BC06B
:100C600020E030E445EB54E4C701B6010E94EE07F2
:100C700018160CF012C120E030E84DE654E4C7012C
:100C8000B6010E94810720E030E041E654E40E9472
:100C9000F30769837A838B839C8382E10E94CF016F
:100CA000BC01990F880B990B0E9496086B017C017F
:100CB00020E030E04BE653E40E94460918160CF0A1
:100CC000F3C020E030E845E454E4C701B6010E94D7
:100CD000EE0787FFF0C020E030E84BEF53E4C70198
:100CE000B6010E94460987FD0BC020E030EC42E0CF
:100CF00054E4C701B6010E94EE0718160CF0E3C0D9
:100D000020E030E04BE653E4C701B6010E948107C2
:100D100020E030EC4AE054E40E94F3076D837E83C8
:100D20008F83988783E10E94CF01BC01990F880BC4
:100D3000990B0E9496086B017C0120E030E04BE6A5
:100D400053E40E94460918160CF0C4C020E030E8B5
:100D500045E454E4C701B6010E94EE0787FFC1C015
:100D600020E030E84DEF53E4C701B6010E94460988
:100D700087FD0BC020E030EC43E054E4C701B6012E
:100D80000E94EE0718160CF0B4C020E030E04BE6ED
:100D900053E4C701B6010E9481076B017C0142E068
:100DA000C301B2010E9458028CE20E94790142E024
:100DB000C501B4010E9458028CE20E94790142E010
:100DC00069817A818B819C810E9458028CE20E9409
:100DD000790142E06D817E818F8198850E94580261
:100DE0008CE20E94790120E030EC4AE054E4C70133
:100DF000B6010E94F30742E00E94580284E291E0AB
:100E00000E94E10180E090E0892B09F487CE0E94E6
:100E1000F600882309F482CE0E9400007FCEC12C08
:100E2000D12C21EEE22E24E4F22EA7CEC12C90E8A4
:100E3000D92E9DE6E92E94E4F92E9FCEC12C80EEAA
:100E4000D82E8BEAE82E84E4F82E97CEC12CD12C34
:100E5000B1EEEB2EB4E4FB2ECFCEC12CA0E8DA2EFF
:100E6000ADE6EA2EA4E4FA2EC7CEC12CF0EEDF2EBA
:100E7000FBEAEF2EF4E4FF2EBFCEC12CE0E4DE2E21
:100E8000E7EEEE2EE4E4FE2EF6CEC12C70E8D72E6F
:100E90007DE6E72E74E4F72EEECEC12CD12C6FEA5E
:100EA000E62E64E4F62EE7CEC12CD12C5BE6E52ECF
:100EB00053E4F52E25CFC12C40E8D42E45E4E42E92
:100EC00044E4F42E1DCFC12C30E4D32EE12C34E4C5
:100ED000F32E16CFC12CD12C2BE6E22E23E4F22EDA
:100EE00054CFC12C90E8D92E95E4E92E94E4F92E44
:100EF0004CCFC12C80E4D82EEE24E39484E4F82E69
:100F000044CF5058BB27AA270E9499070C940C097C
:100F10000E94FE0838F00E94050920F039F49F3F36
:100F200019F426F40C94FB080EF4E095E7FB0C94FE
:100F3000F508E92F0E941D0958F3BA1762077307D5
:100F40008407950720F079F4A6F50C943F090EF478
:100F5000E0950B2EBA2FA02D0B01B90190010C01C9
:100F6000CA01A0011124FF27591B99F0593F50F4E1
:100F7000503E68F11A16F040A22F232F342F442739
:100F8000585FF3CF469537952795A795F040539531
:100F9000C9F77EF41F16BA0B620B730B840BBAF001
:100FA0009150A1F0FF0FBB1F661F771F881FC2F76C
:100FB0000EC0BA0F621F731F841F48F48795779580
:100FC0006795B795F7959E3F08F0B0CF9395880F3A
:100FD00008F09927EE0F9795879508950E94D108FC
:100FE00008F481E008950E9407080C940C090E94FF
:100FF000050958F00E94FE0840F029F45F3F29F0EF
:101000000C94F50851110C9440090C94FB080E94B3
:101010001D0968F39923B1F3552391F3951B550BE3
:10102000BB27AA2762177307840738F09F5F5F4FBB
:10103000220F331F441FAA1FA9F335D00E2E3AF0FA
:10104000E0E832D091505040E695001CCAF72BD012
:10105000FE2F29D0660F771F881FBB1F2617370763
:101060004807AB07B0E809F0BB0B802DBF01FF2795
:1010700093585F4F3AF09E3F510578F00C94F50875
:101080000C9440095F3FE4F3983ED4F3869577953E
:101090006795B795F7959F5FC9F7880F911D96954E
:1010A000879597F90895E1E0660F771F881FBB1FAA
:1010B000621773078407BA0720F0621B730B840B57
:1010C000BA0BEE1F88F7E09508950E94250988F075
:1010D0009F5798F0B92F9927B751B0F0E1F0660FFC
:1010E000771F881F991F1AF0BA95C9F714C0B1303D
:1010F00091F00E943F09B1E008950C943F09672FD9
:10110000782F8827B85F39F0B93FCCF3869577956B
:101110006795B395D9F73EF4909580957095619554
:101120007F4F8F4F9F4F0895E89409C097FB3EF47F
:1011300090958095709561957F4F8F4F9F4F992324
:10114000A9F0F92F96E9BB279395F69587957795A2
:101150006795B795F111F8CFFAF4BB0F11F460FF62
:101160001BC06F5F7F4F8F4F9F4F16C0882311F0BA
:1011700096E911C0772321F09EE8872F762F05C0CE
:10118000662371F096E8862F70E060E02AF09A9569
:10119000660F771F881FDAF7880F9695879597F95E
:1011A0000895990F0008550FAA0BE0E8FEEF1616F8
:1011B0001706E807F907C0F012161306E407F5074B
:1011C00098F0621B730B840B950B39F40A2661F0BF
:1011D000232B242B252B21F408950A2609F4A14062
:1011E000A6958FEF811D811D089597F99F6780E86F
:1011F00070E060E008959FEF80EC089500240A9469
:101200001616170618060906089500240A941216E1
:101210001306140605060895092E0394000C11F414
:10122000882352F0BB0F40F4BF2B11F460FF04C0C1
:101230006F5F7F4F8F4F9F4F089557FD9058440F1A
:10124000551F59F05F3F71F04795880F97FB991F25
:1012500061F09F3F79F087950895121613061406E2
:10126000551FF2CF4695F1DF08C01616170618066F
:10127000991FF1CF86957105610508940895E8944A
:10128000BB2766277727CB0197F908950E94D108DD
:1012900008F48FEF08950E945E090C940C090E94D7
:1012A000FE0838F00E94050920F0952311F00C94F7
:1012B000F5080C94FB0811240C9440090E941D09A8
:1012C00070F3959FC1F3950F50E0551F629FF00199
:1012D000729FBB27F00DB11D639FAA27F00DB11DB2
:1012E000AA1F649F6627B00DA11D661F829F22273B
:1012F000B00DA11D621F739FB00DA11D621F839FC2
:10130000A00D611D221F749F3327A00D611D231F97
:10131000849F600D211D822F762F6A2F11249F57E5
:1013200050409AF0F1F088234AF0EE0FFF1FBB1FE8
:10133000661F771F881F91505040A9F79E3F5105A7
:1013400080F00C94F5080C9440095F3FE4F3983E5C
:10135000D4F3869577956795B795F795E7959F5F51
:10136000C1F7FE2B880F911D9695879597F90895E3
:101370000E94D108880B990B0895A1E21A2EAA1B8E
:10138000BB1BFD010DC0AA1FBB1FEE1FFF1FA21735
:10139000B307E407F50720F0A21BB30BE40BF50B32
:1013A000661F771F881F991F1A9469F760957095BB
:1013B000809590959B01AC01BD01CF010895EE0F82
:0E13C000FF1F0590F491E02D0994F894FFCFE3
:1013CE00000000002C018C00B9007E01EA00C8006C
:1013DE00DC006E616E00696E66006F7666005265A7
:0813EE00616479000D0A0000A2
:00000001FF
