:100000000C9458000C9480000C9480000C94800098
:100010000C9480000C9480000C9480000C94800060
:100020000C9480000C9480000C9480000C94800050
:100030000C9480000C9480000C9480000C94800040
:100040000C9433020C9480000C94A3020C947D0257
:100050000C9480000C9480000C9480000C94800020
:100060000C9480000C948000000000002300260007
:10007000290000000000250028002B0000000000DF
:10008000240027002A0004040404040404040202D7
:100090000202020203030303030301020408102007
:1000A0004080010204081020010204081020E90326
:1000B00011241FBECFEFD8E0DEBFCDBF11E0A0E01E
:1000C000B1E0E0E8F8E002C005900D92AC31B10774
:1000D000D9F721E0ACE1B1E001C01D92A23CB2072A
:1000E000E1F710E0C8E5D0E004C02197FE010E94CE
:1000F0003804C735D107C9F70E941A030C943E048F
:100100000C940000CF93DF9390E0FC01E656FF4F84
:1001100024918A579F4FFC0184918823C1F090E07D
:10012000880F991FFC01E458FF4FC591D491FC0141
:10013000EE58FF4FA591B4919FB7F8948881E22FB4
:10014000E0958E2388838C91E823EC939FBFDF9109
:10015000CF910895AF92BF92CF92DF92EF92FF922C
:100160000F931F93CF93DF936C017B018B01040FDF
:10017000151FEB015E01AE18BF08C017D10759F07B
:100180006991D601ED91FC910190F081E02DC601BD
:100190000995892B79F7C501DF91CF911F910F91B7
:1001A000FF90EF90DF90CF90BF90AF900895FC014B
:1001B000538D448D252F30E0842F90E0821B930BCC
:1001C000541710F0CF96089501970895FC01918D72
:1001D000828D981761F0A28DAE0FBF2FB11D5D9675
:1001E0008C91928D9F5F9F73928F90E008958FEF17
:1001F0009FEF0895FC01918D828D981731F0828DCB
:10020000E80FF11D858D90E008958FEF9FEF089521
:10021000FC01918D228D892F90E0805C9F4F821B85
:1002200091098F739927089585E291E00E94080152
:1002300021E0892B09F420E0822F089580E090E0EE
:10024000892B29F00E94140181110C94000008955B
:10025000FC01A48DA80FB92FB11DA35ABF4F2C913B
:10026000848D90E001968F739927848FA689B78932
:100270002C93A089B1898C91837080648C93938D29
:10028000848D981306C00288F389E02D80818F7DCC
:1002900080830895EF92FF920F931F93CF93DF9384
:1002A000EC0181E0888F9B8D8C8D98131AC0E889B2
:1002B000F989808185FF15C09FB7F894EE89FF8981
:1002C0006083E889F98980818370806480839FBF1F
:1002D00081E090E0DF91CF911F910F91FF90EF901F
:1002E0000895F62E0B8D10E00F5F1F4F0F7311272F
:1002F000E02E8C8D8E110CC00FB607FCFACFE8896A
:10030000F989808185FFF5CFCE010E942801F1CFC8
:10031000EB8DEC0FFD2FF11DE35AFF4FF0829FB7DD
:10032000F8940B8FEA89FB8980818062CFCF6CE2E1
:1003300085E291E00C944A01CF93DF93EC01888D24
:100340008823B9F0AA89BB89E889F9898C9185FD50
:1003500003C0808186FD0DC00FB607FCF7CF8C91DE
:1003600085FFF2CF808185FFEDCFCE010E9428016D
:10037000E9CFDF91CF910895FC0101900020E9F7CA
:100380003197AF01481B590BBC0185E291E00C94F9
:10039000AA008F929F92AF92BF920F931F93CF9319
:1003A000DF93CDB7DEB7A1970FB6F894DEBF0FBECF
:1003B000CDBF19A2423008F44AE08E010F5D1F4FF5
:1003C000842E912CB12CA12CA50194010E9416041D
:1003D000E62FB901CA01EA30F4F4E05DD801EE93EA
:1003E0008D01232B242B252B79F790E080E01097AB
:1003F00019F0CD010E94BC01A1960FB6F894DEBFA2
:100400000FBECDBFDF91CF911F910F91BF90AF90E5
:100410009F908F900895E95CE1CF0F931F9390E038
:10042000FC01E656FF4F6491FC01EA57FF4FE4914F
:10043000F0E0EE0FFF1FE859FF4F8591949100E423
:1004400012E42FE030E0462F0E94D50261157105BD
:100450008105910529F06F5F7F4F8F4F9F4F9F70F0
:100460001F910F9108951F920F920FB60F921124B2
:100470002F933F938F939F93AF93BF9380912101CD
:1004800090912201A0912301B0912401309120018B
:1004900023E0230F2D3758F50196A11DB11D2093A0
:1004A00020018093210190932201A0932301B09316
:1004B000240180911C0190911D01A0911E01B09119
:1004C0001F010196A11DB11D80931C0190931D0178
:1004D000A0931E01B0931F01BF91AF919F918F9187
:1004E0003F912F910F900FBE0F901F90189526E807
:1004F000230F0296A11DB11DD2CF1F920F920FB6EE
:100500000F9211242F933F934F935F936F937F9399
:100510008F939F93AF93BF93EF93FF9385E291E007
:100520000E942801FF91EF91BF91AF919F918F9110
:100530007F916F915F914F913F912F910F900FBEDF
:100540000F901F9018951F920F920FB60F921124C3
:100550002F938F939F93EF93FF93E0913501F09149
:1005600036018081E0913B01F0913C0182FD1BC08E
:10057000908180913E018F5F8F7320913F018217A0
:1005800041F0E0913E01F0E0EB5DFE4F958F8093EE
:100590003E01FF91EF919F918F912F910F900FBE90
:1005A0000F901F9018958081F4CFCF92DF92EF9239
:1005B000FF920F931F93E82FF92F05C001501109E7
:1005C0002109310961F1908196239417B9F305C08F
:1005D000015011092109310911F1908196239413D9
:1005E000F7CFC12CD12CE12CF12C0AC08FEFC81A07
:1005F000D80AE80AF80A0C151D052E053F0579F002
:1006000080818623841791F36C2D7D2D8E2D9F2D57
:100610001F910F91FF90EF90DF90CF90089560E0D1
:1006200070E080E090E01F910F91FF90EF90DF90DD
:10063000CF900895789484B5826084BD84B581603C
:1006400084BD85B5826085BD85B5816085BD80919D
:100650006E00816080936E00109281008091810015
:10066000826080938100809181008160809381000D
:10067000809180008160809380008091B1008460CF
:100680008093B1008091B00081608093B000809130
:100690007A00846080937A0080917A0082608093EF
:1006A0007A0080917A00816080937A0080917A004C
:1006B000806880937A001092C10082E00E948200DC
:1006C00083E00E94820084E00E94820087E00E9412
:1006D000820088E00E94820089E00E948200E0910E
:1006E0003501F091360182E08083E0913101F09193
:1006F00032011082E0913301F091340180E1808376
:1007000010923D01E0913901F0913A0186E0808339
:10071000E0913701F0913801808180618083E09120
:100720003701F0913801808188608083E091370142
:10073000F0913801808180688083E0913701F091E9
:10074000380180818F7D808382E191E00E94BC012D
:1007500088E191E00E94BC01C0E0D0E082E00E940C
:100760000D024AE00E94C9010E94970183E00E94A5
:100770000D024AE00E94C9010E94970184E00E9494
:100780000D024AE00E94C9010E94970187E00E9481
:100790000D024AE00E94C9010E94970188E00E9470
:1007A0000D024AE00E94C9010E94970189E00E945F
:1007B0000D024AE00E94C90188E191E00E94BC015B
:1007C000209761F20E941401882341F20E940000E8
:1007D000C5CFE5E2F1E01382128288EE93E0A0E05B
:1007E000B0E084839583A683B78384E091E091830E
:1007F000808385EC90E09587848784EC90E09787F0
:10080000868780EC90E0918B808B81EC90E0938BDD
:10081000828B82EC90E0958B848B86EC90E0978BBA
:10082000868B118E128E138E148E0895A1E21A2ECD
:10083000AA1BBB1BFD010DC0AA1FBB1FEE1FFF1F84
:10084000A217B307E407F50720F0A21BB30BE40BD4
:10085000F50B661F771F881F991F1A9469F760951B
:100860007095809590959B01AC01BD01CF010895D5
:10087000EE0FFF1F0590F491E02D0994F894FFCF3F
:10088000000000004A01AA00D7009C010801E60010
:0C089000FA005265616479000D0A000056
:107E0000112484B714BE81FFF0D085E080938100F7
:107E100082E08093C00088E18093C10086E0809377
:107E2000C20080E18093C4008EE0C9D0259A86E02C
:107E300020E33CEF91E0309385002093840096BBD3
:107E4000B09BFECF1D9AA8958150A9F7CC24DD24C4
:107E500088248394B5E0AB2EA1E19A2EF3E0BF2EE7
:107E6000A2D0813461F49FD0082FAFD0023811F036
:107E7000013811F484E001C083E08DD089C08234E0
:107E800011F484E103C0853419F485E0A6D080C0E4
:107E9000853579F488D0E82EFF2485D0082F10E0AE
:107EA000102F00270E291F29000F111F8ED06801E7
:107EB0006FC0863521F484E090D080E0DECF843638
:107EC00009F040C070D06FD0082F6DD080E0C81688
:107ED00080E7D80618F4F601B7BEE895C0E0D1E017
:107EE00062D089930C17E1F7F0E0CF16F0E7DF06D8
:107EF00018F0F601B7BEE89568D007B600FCFDCFD4
:107F0000A601A0E0B1E02C9130E011968C91119780
:107F100090E0982F8827822B932B1296FA010C0160
:107F200087BEE89511244E5F5F4FF1E0A038BF0790
:107F300051F7F601A7BEE89507B600FCFDCF97BE46
:107F4000E89526C08437B1F42ED02DD0F82E2BD052
:107F50003CD0F601EF2C8F010F5F1F4F84911BD097
:107F6000EA94F801C1F70894C11CD11CFA94CF0C13
:107F7000D11C0EC0853739F428D08EE10CD085E9AC
:107F80000AD08FE07ACF813511F488E018D01DD067
:107F900080E101D065CF982F8091C00085FFFCCF94
:107FA0009093C60008958091C00087FFFCCF809118
:107FB000C00084FD01C0A8958091C6000895E0E648
:107FC000F0E098E1908380830895EDDF803219F02E
:107FD00088E0F5DFFFCF84E1DECF1F93182FE3DFCA
:107FE0001150E9F7F2DF1F91089580E0E8DFEE27F6
:047FF000FF270994CA
:027FFE00040479
:0400000300007E007B
:00000001FF
